{
  "abi": [
    {
      "inputs": [],
      "name": "BothNotConfirmed",
      "type": "error"
    },
    {
      "inputs": [],
      "name": "Broke",
      "type": "error"
    },
    {
      "inputs": [],
      "name": "Claimed",
      "type": "error"
    },
    {
      "inputs": [],
      "name": "PledgeNotFound",
      "type": "error"
    },
    {
      "anonymous": false,
      "inputs": [
        {
          "indexed": false,
          "internalType": "address",
          "name": "_user",
          "type": "address"
        },
        {
          "indexed": false,
          "internalType": "bool",
          "name": "_ownerSigned",
          "type": "bool"
        },
        {
          "indexed": false,
          "internalType": "bool",
          "name": "_otherSigned",
          "type": "bool"
        }
      ],
      "name": "Break",
      "type": "event"
    },
    {
      "anonymous": false,
      "inputs": [
        {
          "indexed": false,
          "internalType": "address",
          "name": "_staker",
          "type": "address"
        },
        {
          "indexed": false,
          "internalType": "address",
          "name": "_otherHalf",
          "type": "address"
        },
        {
          "indexed": false,
          "internalType": "uint256",
          "name": "_amount",
          "type": "uint256"
        }
      ],
      "name": "Stake",
      "type": "event"
    },
    {
      "anonymous": false,
      "inputs": [
        {
          "indexed": false,
          "internalType": "address",
          "name": "_staker",
          "type": "address"
        },
        {
          "indexed": false,
          "internalType": "uint256",
          "name": "_amount",
          "type": "uint256"
        }
      ],
      "name": "Withdraw",
      "type": "event"
    },
    {
      "inputs": [
        {
          "internalType": "uint256",
          "name": "",
          "type": "uint256"
        }
      ],
      "name": "pledges",
      "outputs": [
        {
          "internalType": "address",
          "name": "owner",
          "type": "address"
        },
        {
          "internalType": "address",
          "name": "other",
          "type": "address"
        },
        {
          "internalType": "bool",
          "name": "ownerClaimed",
          "type": "bool"
        },
        {
          "internalType": "bool",
          "name": "otherClaimed",
          "type": "bool"
        },
        {
          "internalType": "bool",
          "name": "ownerSigned",
          "type": "bool"
        },
        {
          "internalType": "bool",
          "name": "otherSigned",
          "type": "bool"
        },
        {
          "internalType": "uint256",
          "name": "amount",
          "type": "uint256"
        }
      ],
      "stateMutability": "view",
      "type": "function"
    },
    {
      "inputs": [],
      "name": "signBreak",
      "outputs": [],
      "stateMutability": "nonpayable",
      "type": "function"
    },
    {
      "inputs": [
        {
          "internalType": "address",
          "name": "_otherHalfAddr",
          "type": "address"
        },
        {
          "internalType": "uint256",
          "name": "_amount",
          "type": "uint256"
        }
      ],
      "name": "stake",
      "outputs": [],
      "stateMutability": "payable",
      "type": "function"
    },
    {
      "inputs": [],
      "name": "withdraw",
      "outputs": [],
      "stateMutability": "nonpayable",
      "type": "function"
    },
    {
      "stateMutability": "payable",
      "type": "receive"
    }
  ],
  "bytecode": {
    "object": "0x6080604052600160025534801561001557600080fd5b50610867806100256000396000f3fe6080604052600436106100435760003560e01c80633b2a0be41461004f5780633ccfd60b14610066578063ac1240811461007b578063adc9772e1461013757600080fd5b3661004a57005b600080fd5b34801561005b57600080fd5b5061006461014a565b005b34801561007257600080fd5b5061006461029b565b34801561008757600080fd5b506100ef610096366004610798565b60016020819052600091825260409091208054918101546002909101546001600160a01b039283169282169160ff600160a01b8204811692600160a81b8304821692600160b01b8104831692600160b81b909104169087565b604080516001600160a01b03988916815296909716602087015293151585870152911515606085015215156080840152151560a083015260c082015290519081900360e00190f35b6100646101453660046107b1565b61047b565b33600081815260208190526040902054806101785760405163b7ddfcb160e01b815260040160405180910390fd5b600081815260016020526040902080546001600160a01b0384811691161480156101ae57506001810154600160b01b900460ff16155b156101cd5760018101805460ff60b01b1916600160b01b179055610230565b60018101546001600160a01b0384811691161480156101f857506001810154600160b81b900460ff16155b156102175760018101805460ff60b81b1916600160b81b179055610230565b6040516358b9630d60e11b815260040160405180910390fd5b6001810154604080516001600160a01b038616815260ff600160b01b8404811615156020830152600160b81b9093049092161515908201527fed8af29dafbd3691864a7958657c760f7b662f5f314ec3e4fb58a131612819bb906060015b60405180910390a1505050565b33600081815260208190526040902054806102c95760405163b7ddfcb160e01b815260040160405180910390fd5b600081815260016020819052604090912090810154600160b01b900460ff16158061030057506001810154600160b81b900460ff16155b1561031e576040516317b7d1bb60e01b815260040160405180910390fd5b600281015461036a5760405162461bcd60e51b81526020600482015260136024820152724e6f7468696e6720746f20776974686472617760681b60448201526064015b60405180910390fd5b80546001600160a01b03848116911614801561039257506001810154600160a01b900460ff16155b156103b15760018101805460ff60a01b1916600160a01b179055610414565b60018101546001600160a01b0384811691161480156103dc57506001810154600160a81b900460ff16155b156103fb5760018101805460ff60a81b1916600160a81b179055610414565b6040516317968e5360e31b815260040160405180910390fd5b60006002826002015461042791906107e9565b90506104338482610742565b604080516001600160a01b0386168152602081018390527f884edad9ce6fa2440d8a54cc123490eb96d2768479d49ff9c7366125a9424364910160405180910390a150505050565b3334821180159061048c5750600082115b6104cd5760405162461bcd60e51b8152602060048201526012602482015271109859081cdd185ada5b99c8185b5bdd5b9d60721b6044820152606401610361565b6001600160a01b0381166000908152602081905260409020546106b15760006040518060e00160405280836001600160a01b03168152602001856001600160a01b031681526020016000151581526020016000151581526020016000151581526020016000151581526020018481525090508060016000600254815260200190815260200160002060008201518160000160006101000a8154816001600160a01b0302191690836001600160a01b0316021790555060208201518160010160006101000a8154816001600160a01b0302191690836001600160a01b0316021790555060408201518160010160146101000a81548160ff02191690831515021790555060608201518160010160156101000a81548160ff02191690831515021790555060808201518160010160166101000a81548160ff02191690831515021790555060a08201518160010160176101000a81548160ff02191690831515021790555060c08201518160020155905050600254600080846001600160a01b03166001600160a01b0316815260200190815260200160002081905550600254600080866001600160a01b03166001600160a01b03168152602001908152602001600020819055506001600260008282546106a5919061080b565b909155506106f0915050565b6001600160a01b03811660009081526020818152604080832054835260019091528120600281018054919285926106e990849061080b565b9091555050505b6106fa3383610742565b604080516001600160a01b038084168252851660208201529081018390527f99039fcf0a98f484616c5196ee8b2ecfa971babf0b519848289ea4db381f85f79060600161028e565b600080600080600085875af19050806107935760405162461bcd60e51b815260206004820152601360248201527211551217d514905394d1915497d19052531151606a1b6044820152606401610361565b505050565b6000602082840312156107aa57600080fd5b5035919050565b600080604083850312156107c457600080fd5b82356001600160a01b03811681146107db57600080fd5b946020939093013593505050565b60008261080657634e487b7160e01b600052601260045260246000fd5b500490565b6000821982111561082c57634e487b7160e01b600052601160045260246000fd5b50019056fea26469706673582212209028bf329533a35a84bbc507c6eb0a17aa9b260ee70b42fa0745930c7dd2d9c364736f6c634300080a0033",
    "linkReferences": {}
  }
}